:020000040002F8
:1060000088520020C1630200C9630200CB63020012
:10601000CD630200CF630200D163020000000000E4
:10602000000000000000000000000000D363020038
:10603000D563020000000000D7630200D9630200AC
:1060400079670200DB630200116B0200DB63020070
:10605000DB630200DB630200ED640200DB6302002D
:10606000DB630200DB630200DB630200DB63020030
:10607000DB630200DB630200DB630200DB63020020
:10608000DB630200CD670200DB630200DB6302001A
:106090008D680200DB63020095680200DB6302008A
:1060A000DB630200DB630200DB630200DB630200F0
:1060B000DB630200DB630200000000000000000060
:1060C000DB630200DB630200DB630200DB630200D0
:1060D000DB630200DB630200DB6302000000000000
:1060E00000000000000000000000000000000000B0
:1060F00000000000000000000000000000000000A0
:10610000000000000000000000000000000000008F
:10611000000000000000000000000000000000007F
:10612000000000000000000000000000000000006F
:10613000000000000000000000000000000000005F
:10614000000000000000000000000000000000004F
:10615000000000000000000000000000000000003F
:10616000000000000000000000000000000000002F
:10617000000000000000000000000000000000001F
:10618000000000000000000000000000000000000F
:1061900000000000000000000000000000000000FF
:1061A00000000000000000000000000000000000EF
:1061B00000000000000000000000000000000000DF
:1061C00000000000000000000000000000000000CF
:1061D00000000000000000000000000000000000BF
:1061E00000000000000000000000000000000000AF
:1061F000000000000000000000000000000000009F
:10620000DFF80CD000F034F900480047E1970200B5
:106210008852002030B450E8012F93B2C48923443F
:106220008489A34228BF1B1B0489A34202BFBFF37A
:106230002F8F002007E0C3EA020340E80134002C5E
:10624000E9D14FF001000A6030BC704750E8012FDF
:10625000C2EA024240E801210029F7D1704730B478
:1062600050E8022F1FFAA2F3C488A34202BFBFF373
:106270002F8F00200DE0C48923448489A34228BFC6
:106280001B1BC2EA034340E80234002CE8D14FF064
:1062900001000A6030BC704750E8022FC2EA224277
:1062A00040E802210029F7D17047034653E8022F46
:1062B000D988B2EB324F4FF0000017BF92B241EADB
:1062C000014142EA014104E05A68B2EB324F08BF93
:1062D000012043E80212002AE8D1704730B4044696
:1062E00054E8000F0D4644E80053002BF8D1156028
:1062F00030BC704730B4044654E8000F40EA010552
:1063000044E80053002BF7D1156030BC704730B41F
:10631000044654E8000F00EA010544E80053002B4E
:10632000F7D1156030BC704730B4044654E8000F14
:1063300080EA010544E80053002BF7D1156030BC1A
:10634000704730B4044654E8000F00EB010544E800
:106350000053002BF7D1156030BC704730B40446B1
:1063600054E8000FA0EB010544E80053002BF7D1DF
:10637000156030BC704770B404464FF0000054E81C
:10638000006F0D68AE4207BF44E80023012044E8D7
:1063900000630E60002B1CBF0020F0E770BC70474C
:1063A00030B4044654E8000F88422CBF451A054615
:1063B00044E80053002BF5D1156030BC7047000055
:1063C0000648804706480047FEE7FEE7FEE7FEE78F
:1063D000FEE7FEE7FEE7FEE7FEE7FEE7AD68020048
:1063E00001620200004870476CE5020040EA0103C8
:1063F0009B0703D009E008C9121F08C0042AFAD27B
:1064000003E011F8013B00F8013B521EF9D270473E
:10641000D2B201E000F8012B491EFBD270470022E6
:10642000F6E710B513460A4604461946FFF7F0FF93
:10643000204610BD421C10F8011B0029FBD1801A18
:10644000704730B504460020034600E05B1C9342D1
:1064500003D2E05CCD5C401BF8D030BD034611F8A0
:10646000012B00F8012B002AF9D1184670470000D3
:10647000064C074D06E0E06840F0010394E8070091
:1064800098471034AC42F6D3FFF7BEFEF0F302009B
:1064900010F4020070B58C1810F8015B15F00703BA
:1064A00001D110F8013B2A1106D110F8012B03E0AD
:1064B00010F8016B01F8016B5B1EF9D12B0705D4B5
:1064C0000023521E0DD401F8013BFAE710F8013BFE
:1064D000CB1A921C03E013F8015B01F8015B521E1A
:1064E000F9D5A142D8D3002070BD00002DE9F04FAE
:1064F00089B00027002008904FF480700790012693
:10650000002412E0079804F01BF840B100BF7B485C
:106510000068304018B1079804F004F8374376005B
:106520000798001D80B20790641C082CEAD34FF432
:10653000BE7004F005F850B14FF4BE7003F0F2FFE6
:1065400047F0004708AA0121002003F0D1FFF8B26C
:1065500000B3012600241BE006EA0700B0B100BF2B
:10656000674850F82400C0F30420804600BF644808
:1065700050F82400C0F301408146204601F042F863
:10658000054615B149464046A84700BF7600641C41
:10659000082CE1D307F0004000287DD000200690B1
:1065A0000590002505E04FF0FF3004A941F82500D3
:1065B0006D1C002DF7D000BF0020069000245FE086
:1065C0005048005D0390039820F0C0094D480057E3
:1065D000401C002853D004A9484603F07CFB002847
:1065E0004DD003984FEA901A484601F013F88046C0
:1065F00001F008F80290029810B9BAF1030F3DD1EA
:10660000BAF1030F03D105A9484603F06FFB00BFA1
:1066100000BF4FF0A041084600F5E06151F8291095
:10662000C1F3014800BF08A9484603F054FB834664
:10663000BBF1000F02D0B8F1020F05D0BBF1000F83
:106640001BD1B8F1030F18D1BAF1030F0FD1B8F174
:10665000020F01D1032000E0022001904846019979
:1066600003F02CFF0698401CC0B2069000BF0298B1
:1066700018B151464846029A904700BF00BF641CBB
:10668000042C9DD3069888B34FF0010803AA01217A
:10669000002003F02DFF00E02DE000250BE003A813
:1066A00050F8250008A951F82510884202D04FF073
:1066B000000802E06D1C002DF1D000BFB8F1000F02
:1066C00002D00020069010E000250CE003A850F84E
:1066D000250008A941F8250005A850F8250004A9BF
:1066E00041F825006D1C002DF0D000BF0698002851
:1066F0007FF462AF00BF09B0BDE8F08F04630040D3
:1067000010650040D023002000F01F0201219140BD
:10671000024A430942F823107047000080E200E07B
:1067200000F01F02012191404209920002F1E02293
:10673000C2F800117047000000F01F0201219140D3
:10674000024A430942F823107047000000E200E0CB
:1067500010B5002807DA4A07140E054A00F00F03A7
:106760001B1FD45403E04A07130E024A135410BDF2
:1067700018ED00E000E400E010B54FF4807003F085
:10678000C0FA80B14FF4807003F0C4FA012003F026
:10679000CBFA0D48407930B901200B4948710846C1
:1067A0000168002088474FF4827003F0AAFA50B1C4
:1067B0004FF4827003F0AEFA022003F0B5FA0248FB
:1067C00001680120884710BD1C22002010B5002060
:1067D0000949086000210948C0F84411C0F848116F
:1067E000C0F84C1100200549C1F8000102493C39AC
:1067F000086007F01FF810BD401101400010014073
:1068000010B500F08DF910BD2DE9F0470746884618
:106810001646C24607EB47011B4800EBC109D9F8F1
:10682000140020B1012811D0022826D11EE04846CC
:1068300000F0AEF90546B54201D2002405E0344629
:1068400032465146484600F0EAF918E0484600F062
:106850009FF90546B54201D2284600E0304604467D
:1068600022465146484600F0DAF908E032465146E1
:10687000484600F09BF9044601E0002400BF00BF39
:106880002046BDE8F0870000682C002010B506F017
:10689000DBFE10BD10B504F08BFB10BD01480249B2
:1068A000086070470090D0031822002010B501F056
:1068B000E1F828B185480088C0F3042084490860C5
:1068C00001F02CF910B183488349486701F04EF973
:1068D00030B17E48E0380068C0F342307F4908603C
:1068E00001F06EF928B17E48006820F080707C4984
:1068F000086001F07DF948B100207A4908604FF046
:106900008041C1F810017549091F086001F09AF92A
:1069100018B1032071496431086001F0ABF968B126
:1069200005207149086001206F4978310860002016
:106930006D49083108603F20091F086001F0B2F975
:10694000002855D06148E0300068684908605F4819
:10695000E4300068091D08605C48E8300068091DE3
:1069600008605A48EC300068091D08605748F0304C
:106970000068091D08605548F4300068091D08606A
:106980005248F83000685949203108604F48FC30BF
:106990000068091D086056480068091D08605448D1
:1069A000001D0068091D0860514808300068091D75
:1069B00008604F480C300068091D08604C481030D2
:1069C00000684A4940310860494814300068091D90
:1069D0000860474818300068091D086044481C30AA
:1069E0000068091D0860424820300068091D0860E1
:1069F00001F016F830B13548CC38006800F04F008F
:106A00003C49086001F060F840B13B48006800F084
:106A1000010018B16FF001003749086001F096F8E5
:106A200028B13648006840F48060344908602C483A
:106A30007438006840F47000294974390860BFF365
:106A40004F8FBFF36F8F2E48006800F0004028B9C9
:106A50002B48001D006800F0004098B30120294930
:106A6000086000BF284800680028FBD01520244992
:106A7000086000BF244800680028FBD0152120488A
:106A8000001D016000BF204800680028FBD00020E6
:106A90001C49086000BF1C4800680028FBD000BFEC
:106AA000BFF34F8F0E48F038006800F4E0601749DC
:106AB0000843001D0A49F0390860BFF34F8F00BF3B
:106AC00000BFFEE7FFE7FFF7E9FE10BD240300105B
:106AD000403501400DF0ADBA00C007403C05004014
:106AE000FCED00E00C0100401056004020C50040C5
:106AF00024040010E40E0040000400403C17004055
:106B00000012001004E5014000E401400000FA0515
:106B100010B502490868804710BD000024220020FB
:106B200010B5124C02202061606111A0A0611349D0
:106B3000E1614FF4007121620021A1626162E162B2
:106B40000BA0A0640E49E164102121650021A1651C
:106B50006165E1650BA1E01DFFF780FC0AA12046FD
:106B6000FFF77CFC2020A07110BD0000502C0020FD
:106B70005465726D696E616C00000000C82C0020C5
:106B8000C82E002052545400534547474552000038
:106B900010B501460A69CB689A4204D88C68641E15
:106BA000E41AA01801E0D41A601E10BD2DE9F047C8
:106BB0000446894617464FF0000AE56800BFD4F83E
:106BC0001080A84503D9A8EB0500461E04E0A5EBFC
:106BD0000800401CA1680E1AA068401BB04201D9F1
:106BE000304601E0A068401B0646BE4201D2304656
:106BF00000E0384606466168481932464946FFF7C4
:106C0000F5FBB244B144BF1B3544A068A84200D193
:106C10000025E560002FD2D15046BDE8F0872DE970
:106C2000F047044689461546E668A068871BAF42D0
:106C300008D9616888192A464946FFF7D7FB7019B9
:106C4000E06010E0B8466168881942464946FFF79F
:106C5000CDFBA5EB070809EB070142466068FFF78B
:106C6000C5FBC4F80C80BDE8F08702E008C8121F1D
:106C700008C1002AFAD170477047002001E001C125
:106C8000121F002AFBD170470146202908DA012093
:106C900088400A4A104008B1012070470020FCE7F4
:106CA000402909DAA1F12000012202FA00F008B11E
:106CB0000120F2E70020F0E70120EEE7FC06FFBD2F
:106CC00000BFEFF31081084672B6704770B50546F5
:106CD0000C4605B10CB9002070BD28784008217819
:106CE000B0EB510F01D00020F6E70622611C681CB2
:106CF000FFF7A7FB08B90120EEE70020ECE701460B
:106D000001F0030008B9012070470020FCE70246AB
:106D100050680068401E084008B9012070470020F4
:106D2000FCE710B50346D868884206D88818401E8C
:106D30001C69A04201D8012010BD0020FCE7000022
:106D400010B504466CB10848C068A04209D806488E
:106D50000069A04205D3204602F0D3F908B1012012
:106D600010BD0020FCE700003823002070B58CB077
:106D700004460D461646002005E0C0F10F01615C97
:106D80000DF80010401C1028F7D30D2104A8FFF7C0
:106D900046FB002005E02A5CC0F10F0304A9CA5499
:106DA000401C0328F7D3684646DF002005E0C0F109
:106DB0000F0208A9895C3154401C0328F7D30CB09A
:106DC00070BD000010B5044602480178204600F06E
:106DD00071FA10BD1F23002072B600BF03F00CFF34
:106DE00000BF00BF03F0A2FC0028FBD100BF00BF22
:106DF0001749184A891AC908012242EA014016A116
:106E000003F01AFE00BF1748006800F0010000B14F
:106E100000BE00BF0E490F4A891AC908022242EA81
:106E2000014011A103F008FE00BFBFF34F8F0D48D2
:106E3000E438006800F4E0600F490843001D094988
:106E4000E4390860BFF34F8F00BF00BFFEE70000CA
:106E500060F4020020F40200466174616C206572E7
:106E6000726F7200F0ED00E053797374656D2072FB
:106E700065736574000000000000FA053EB5044625
:106E8000002000900190029002946A46002144F292
:106E90000100FFF7A1FF3EBD10B503460C4600BF41
:106EA0000B48807808B9082010BD00BF0AB9072038
:106EB000FAE70BB90720F7E71868007C08B108204B
:106EC000F2E71968002008744C744A6100BFEBE7D0
:106ED000DC23002010B505F0C1FC00200F4908702C
:106EE00048700B20887000200D4908600D4908701B
:106EF0000D4908701420FFF707FC06211420FFF746
:106F000027FC1420FFF70CFC002005F07DFC05F0A9
:106F100075FC06490860002010BD0000DC2300203D
:106F20002C2200203C2200203D2200203022002084
:106F30002DE9F04104460E461746254600BF10488D
:106F4000807810B90820BDE8F08100BF0CB9082096
:106F5000F9E7052E01D20720F5E7686908B908208E
:106F6000F1E7687C012801D1304600E0002080462E
:106F70003B4642463146284606F00CFCE3E700005B
:106F8000DC23002070B50446254600BF0848807801
:106F900008B9082070BD00BF0CB1686908B90820A5
:106FA000F8E7002028740221284606F022FCF1E7C9
:106FB000DC23002010B50446204605F0D7FC10BDA8
:106FC00070B5044625460E488068B0B1ADB9FFF7EC
:106FD00077FE06460A4800680A4908600848406883
:106FE0004FF0E021C1F804010020054988601EB976
:106FF00000BF62B600BF00BF00BF00BF70BD000091
:107000008826002000E100E070B504460D462046C9
:1070100002F058FA70BD10B50446637903F003021C
:107020002179208802F068F910BD10B50446207956
:1070300018B9204600F008F803E02046FFF7EBFF00
:1070400000BF00BF10BD00002DE9FE4307463E888B
:107050004FF00008002259480178304600F040F90E
:107060007879C0F3800028B90021384604F078FA16
:10707000BDE8FE8306F5807188B201AB01220721CD
:1070800004F04EFB0546C5B1284604F049F8814698
:107090004B494C4A891AC908012242EA0140334649
:1070A0004A46494903F0DEFC2946304605F0E0FE39
:1070B0000021384604F054FADAE7304601F052FE77
:1070C00004464FF6FF718C421BD1029801F09AFDE5
:1070D00004464FF6FF70844213D02146304601F03B
:1070E0001FFE3046FFF76EFE58B9304605F052FEDF
:1070F0003046FFF767FE20B90021384604F030FA29
:10710000B6E74FF6FF7084421FD104F0BBFC044683
:107110004FF6FF70844212D129492A4A891AC908B8
:10712000012242EA014029A103F086FC04213046F5
:1071300005F09EFE0021384604F012FA98E7214639
:10714000304601F0EDFD4FF0010806F5807188B280
:107150002246072104F06CFB054625B9012138467B
:1071600004F0FEF928E0862D07D1304605F044FEF4
:107170000121384604F0F4F91EE0284603F0D0FF60
:1071800081460F490F4A891AC908012242EA014083
:1071900033464A461A49009403F074FC29463046A7
:1071A00005F066FE0021384604F0DAF9B8F1000F68
:1071B00002D0204601F0BEFD00BF59E71C2300208D
:1071C000C0F4020020F40200D4EF0200436F756C9B
:1071D00064206E6F7420616C6C6F63617465206EE7
:1071E000657720706565725F696420666F722069DB
:1071F0006E636F6D696E6720626F6E642E000000B3
:1072000080F00200002114E00C48D0F81024012383
:1072100008E000BFD0680079884201D1002303E074
:10722000D0680268002AF4D100BF0BB1084670474D
:10723000491C0A29E8DB4FF0FF30F8E72C28002032
:1072400010B50446204600F069F820B121460348F5
:1072500002F049FC10BD0020FCE70000382F0020A0
:1072600070B504460D461646204606F0C3FB08B925
:10727000002070BD034951F824003246294600F031
:107280009BFFF6E7402F002070B5044600252046FE
:1072900000F044F850B12146054802F024FC0646AF
:1072A0000EB1022000E00120054600BF284670BD57
:1072B000342F002070B505460C46204606F09AFB98
:1072C00050B1284600F02AF830B1044901EB84009F
:1072D000294602F008FC70BD0020FCE7402F00208A
:1072E00070B505460C461646204606F083FB88B16D
:1072F000284600F013F868B136B1074901EB840065
:10730000294602F0FFFB05E0034901EB8400294612
:1073100002F093FB70BD0000402F002010B5044622
:10732000142C01DB002010BD2146024802F0DBFBDB
:10733000F9E700002C2F002070B504460D46208888
:10734000102806D0112808D012280ED0502810D1AD
:1073500007E0204603F08EFF0CE0204603F0C2FF5A
:1073600008E0204604F01AF804E0204603F06AFF23
:1073700000E000BF00BF70BD2DE9F0410446884623
:10738000A5882088102804D0112815D01A2847D1A4
:1073900016E005F0D9F9284605F060F820B900BFDD
:1073A0000420FFF76BFD06E0E07B012803D02946AF
:1073B0001D4802F0A7FB33E0284605F0E9F92FE06D
:1073C000207A0121B1EB101F01DA012000E000203A
:1073D0000646207A0221B1EB101F01DA012000E0FD
:1073E000002007468EB129460F48001D02F08AFB97
:1073F0002FB129460C48083002F084FB0FE02946E3
:107400000948083002F019FB09E029460648001D2A
:1074100002F013FB29460448083002F00EFB00BFBF
:1074200000BFBDE8F0810000342F002070B5044695
:107430000D4600BF0748007800B970BD00BF204668
:1074400001F04AFB204605F033FE204601F058F8D3
:1074500000BFF2E70C23002070B50446204606F07A
:107460003BFA054605F0010070BD00002DE9FC4720
:1074700004460D461646A71C4FF001080020019057
:1074800001A8FFF797FD3048006828602E48006883
:107490002D494968411A2C488068401CA0EB01091D
:1074A00015E00121294802F051FB02F035F982462E
:1074B0005146264802F04AFB2348006822494968A1
:1074C000411A21488068401CA0EB010900BF4F45CC
:1074D000E7D8B8F1000F30D00021009176B10099C3
:1074E00021F00301491C0091009921F00401091DBC
:1074F0000091009964F3891100910DE0009921F049
:107500000301891C0091009921F00401091D0091DB
:10751000009964F39F5100910B4909680A4A9268E7
:107520001140094A0C3202EB8100009901600649C2
:10753000096839440C3A116000BF9DF80400FFF758
:107540003FFD4046BDE8FC872C280020482C002049
:1075500070B504460D46A168481CA06020684554DB
:10756000D4E90110884202D3204602F034FC70BDF9
:107570000448406803490968884201D101207047E6
:107580000020FCE72C2800207CB50446204601F0B2
:10759000E9FB054600236A46092104F0C7F90528DE
:1075A00005D10122024801782046FFF799FE7CBDF3
:1075B000F02200207CB504460E460020019042F6E1
:1075C000A620ADF8040001208DF8060004480068EC
:1075D00000906A4601A92046A0DF05467CBD000058
:1075E000E0E3020001468879012809D108790128E1
:1075F00006D1488842F60212904201D1012070471C
:107600000020FCE70146024850F8210070470000C6
:10761000802300200146014840567047B0230020D7
:107620002DE9F04104460D464FF6FF763046844280
:107630000AD14FF48071284602F025FA86B2B6F5D9
:10764000807F10D126460EE0FF2C0CDC2146284618
:1076500002F002FA80F001070FB1204601E04FF678
:10766000FF70064600BF3046BDE8F08170B50546A4
:107670000DB9094C01E0084C083409E0204601F03E
:1076800048FD064606B904E028467168884700BFF1
:10769000F4E700BF70BD00007423002010B504465D
:1076A0002CB90120064948700020FFF7DFFF012CAC
:1076B00004D1012002498870FFF7D8FF10BD0000F7
:1076C0006C2300202DE9F04782461E480068002800
:1076D00036D01C480068056805F090F807461A483F
:1076E00004682146384605F029FFC61C1748007873
:1076F00008B905F095F8AE4201D2284600E03046C0
:10770000044424F07F44204605F072F805F076F832
:1077100080463946404605F011FF00F1030939461D
:10772000204605F00BFF814509D905F067F8814631
:1077300005F05EF82F2003F02DFD06F0C7F800BF1E
:10774000BDE8F0872C220020302200203E220020BD
:1077500033B58BB00546002000900C9878B100241A
:107760000BE021460CA802F0BEF928B1009A501C8B
:10777000009001A820F81240641C142CF1D32C2294
:1077800069462846FEF732FE0DB030BDF8B5054615
:107790000C46607A88B9207A10B91048476801E031
:1077A0000E4887682A4639466068FFF7C1FB0646DF
:1077B00016B1304605F000FB0EE0002020720748AD
:1077C000406948B101208DF80000ADF8025003482F
:1077D00041696846884700BFF8BD00000C2F0020B3
:1077E000F0B587B004460D4617461E4618220B49D1
:1077F00001A8FEF7FBFDADF806408DF80C50ADF882
:107800000E708DF810600022054801782046FFF7C1
:1078100067FD01A800F082FB07B0F0BDA4E4020000
:107820001C23002010B586B00446208803F04EFECD
:1078300000BB2088FFF704FD30B92088012241F207
:10784000060100F0ADF815E0208800220A49097809
:10785000FFF746FD02208DF800002088ADF80200F9
:1078600000208DF8080000218DF80910684600F00E
:1078700055FB00BF06B010BD1C2300202DE9F041D0
:1078800005460F460B4C0121204602F096F90646AC
:10789000BFF35F8F0EB9012000E0002040B1284601
:1078A00001F07EFE08B1BDE8F081024803F0C0FAA5
:1078B00000BFF8E7E822002070B506460D460EB17D
:1078C000012070BD287920B1012809D0022813D1E8
:1078D0000FE002202871284604F01AFE04460DE04D
:1078E000284600F023FC04460A2C01D141F61D5421
:1078F00004E041F61D5401E00F2400BF00BF204604
:10790000DFE770B5044620793D2802D141F23D0001
:1079100001E04FF48850054620880022294601F0F6
:10792000EBFC70BD10B50021034802F046F9044697
:1079300084F3100010BD0000482C002001461448BC
:107940000078144A127890421DD011480078401CEB
:107950000F4A107010460078022801D100201070E4
:107960000D480B4A127850F8220008600B4A08684C
:1079700012681044094A10601046006820F07F40E9
:107980001060012070470020086000BFFAE7000087
:107990003C2200203D220020342200203022002002
:1079A00070B506460C4615462B4622460021304649
:1079B000FFF716FF70BD00002DE9F84305460E469F
:1079C0001746984669461048006801F0FEFF0446D5
:1079D00014B90420BDE8F8831C212046FEF71FFDE2
:1079E000012020712560C4F8088008480068B6FBB3
:1079F000F0F0E060676169460348006802F00FF844
:107A000004F0BCFC0020E5E76CE1020060E102004C
:107A100010B50446D4E90321501828DF10BD00003A
:107A200013480078062820D11148001D007800F086
:107A30000F00D0B90E480830007800F0F000302870
:107A400001D1012070470A480830007800F0F000AA
:107A5000402801D10120F5E705480830007800F002
:107A6000F000502801D10120ECE70020EAE70000F7
:107A7000E00F00F013480078062820D11148001DBF
:107A8000007800F00F00D0B90E480830007800F000
:107A9000F000302801D1012070470A4808300078F2
:107AA00000F0F000402801D10120F5E7054808303A
:107AB000007800F0F000502801D10120ECE7002010
:107AC000EAE70000E00F00F013480078062820D114
:107AD0001148001D007800F00F00D0B90E480830A2
:107AE000007800F0F000302801D1012070470A48EA
:107AF0000830007800F0F000402801D10120F5E7BF
:107B000005480830007800F0F000502801D101202D
:107B1000ECE70020EAE70000E00F00F00A480078F8
:107B200006280ED10848001D007800F00F0040B96B
:107B300005480830007800F0F000302801D101201D
:107B400070470020FCE70000E00F00F006480068E6
:107B5000062806D10448001D0068062801D101202E
:107B600070470020FCE70000300100101348007847
:107B7000062820D11148001D007800F00F00D0B970
:107B80000E480830007800F0F000302801D10120C4
:107B900070470A480830007800F0F000402801D112
:107BA0000120F5E705480830007800F0F000502883
:107BB00001D10120ECE70020EAE70000E00F00F02F
:107BC0000A48007806280ED10848001D007800F009
:107BD0000F0040B905480830007800F0F000302868
:107BE00001D1012070470020FCE70000E00F00F009
:107BF00013480078062820D11148001D007800F0B5
:107C00000F00D0B90E480830007800F0F00030289E
:107C100001D1012070470A480830007800F0F000D8
:107C2000402801D10120F5E705480830007800F030
:107C3000F000502801D10120ECE70020EAE7000025
:107C4000E00F00F00A48007806280ED10848001D11
:107C5000007800F00F0040B905480830007800F0C7
:107C6000F000302801D1012070470020FCE700001F
:107C7000E00F00F00A48007806280ED10848001DE1
:107C8000007800F00F0040B905480830007800F097
:107C9000F000302801D1012070470020FCE70000EF
:107CA000E00F00F00A48007806280ED10848001DB1
:107CB000007800F00F0040B905480830007800F067
:107CC000F000502801D1012070470020FCE700009F
:107CD000E00F00F00278072A38D2DFE802F037041C
:107CE0000712222B340000220A7030E001220A70B1
:107CF00003898B818388CB81C2688A6000230B74DF
:107D000025E002220A7003898B818388CB81C268B7
:107D10008A60827D062A01D1012300E000230B74D2
:107D200015E003220A70C3888B810389CB81C26866
:107D30008A600CE004220A70C3888B810023CB8107
:107D400000228A6003E005220A7000E000BF00BF45
:107D50007047000070B50546002409E0064850F859
:107D6000240020B1044850F8241028468847641C99
:107D7000042CF3D370BD0000E824002030B587B098
:107D800004460D462068806808B907B030BD182148
:107D900001A8FEF744FB0295A0680690207910B177
:107DA000012815D109E001208DF804002069039015
:107DB000E0680490606905900BE002208DF80400F3
:107DC0000749E0680968484303906069059000E04E
:107DD00000BF00BF2068816801A8884700BFD4E7C2
:107DE00060E10200F0B587B005460C461646002C4F
:107DF0004BD0112C49D0082C47D0182101A8FEF7F0
:107E00000EFBADF80650284600F0ACFFADF80800B8
:107E10000D2C1FD11E491F4A891AC908022242EAA5
:107E200001402A461C4902F011FE03208DF804008F
:107E30002EB1307800F0010008B1012000E00220EE
:107E40008DF80C0000218DF8101041F20111ADF8F1
:107E50000E1016E0204603F063F907460C490D4A60
:107E6000891AC908012242EA01402B463A460B49C9
:107E700002F0F8FD07208DF80400039400218DF82E
:107E8000101001A800F05EF800BF07B0F0BD0000C0
:107E9000C8F4020020F402003CF102004CF202009F
:107EA00010B50446204600F04DF810BD70B50446EC
:107EB000608800F057FFA080002505E0044850F8D6
:107EC0002510204688476D1C002DF7D070BD00009E
:107ED000E022002070B50546002405E0044850F873
:107EE000241028468847641C022CF7D370BD00007C
:107EF00024E4020070B50546002405E0054850F86A
:107F0000241028468847641C034800788442F5DB27
:107F100070BD0000383200201A23002070B50446DE
:107F2000608800F01FFFA080002505E0044850F89D
:107F30002510204688476D1C002DF7D070BD00002D
:107F400058E4020070B50546002405E0044850F8E6
:107F5000241028468847641C002CF7D070BD000010
:107F6000E4E40200F0B5034600241FE0124E30683E
:107F700006689E4203D90668F61A06601AE006688B
:107F80009B1B06683444002606600B4E35680A4F7A
:107F9000C6693E60C66846B10E1926F07F46466047
:107FA000C66886601668C661156000BF0248006832
:107FB0000028DBD100BFF0BD2C22002038B50546DB
:107FC0000E48007808B9022038BD4FF6FF70854290
:107FD00001D10420F8E7684604F0C0F804460CB963
:107FE0000820F1E70520207001202071E580684617
:107FF00004F0C4F804F0B6F90020E5E740220020C0
:1080000038B504460CB9052038BD6946204604F051
:108010009DFA00B3BDF8000000EB80000F4901EBB2
:108020008000C068A8B1A07A98B1BDF8000000EB4C
:10803000800001EB8000C068401EBDF8001001EB1D
:108040008101064A02EB8101C8600020A072002570
:1080500002E0062500E00A252846D5E79425002001
:108060007FB514461D462B46224601A9684604F0FA
:1080700009FA04B070BD37B50C4615462B462246AA
:108080006946002004F0FEF93EBD37B50C461546A2
:108090002B4622460021684604F0F4F93EBD024614
:1080A00002B109B905207047106808600020FAE79E
:1080B000F8B504460D4604B10DB90520F8BD694672
:1080C000204604F043FAA0B16668BDF8001001EB49
:1080D0008101094A02EB810101F10C00012101F04B
:1080E00035FD2E6060680C3068600120A0720020B1
:1080F000E4E70A20E2E700009425002070B504467A
:108100000D460CB9052070BD0323002229462046E8
:1081100005F06AFEF7E770B504460D46022300221B
:108120002946204605F060FE70BD00003EB50446BD
:108130000A4B6A460021A01D04F0A4F9054635B992
:10814000064A9188019804F07BFA054603E003484B
:1081500000210160416028463EBD00005C220020F5
:108160000146A1F5404080B2704700002DE9F04182
:1081700006460C4615460027112C01D1012700E0C8
:10818000002765B13A460A4801783046FFF7A8F85B
:108190000022084801783046FFF7A2F805E03A4689
:1081A000044801783046FFF79BF8BDE8F0810000F5
:1081B0003723002034230020F7B50D4617460DB9AC
:1081C0000020FEBD0026009868B1002409E0214689
:1081D000684601F088FC18B1A0B23946A847761C61
:1081E000641C142CF3D33046EBE710B504466068EA
:1081F00004F010F810BD000070B505460DB1012067
:1082000070BD1848007B18B100201649087301E0C2
:1082100000F0DEF81348007808281DD2DFE800F0EF
:108220001C04080C101C141800F03EF8044615E05D
:1082300000F0BCF8044611E000F098F804460DE0A8
:1082400000F046F8044609E000F02CF9044605E089
:1082500000F03AF9044601E00F2400BF00BF2046B9
:10826000CEE70000BC2500200D480089401C0C49C9
:10827000088100204880087300BF0DE000EB8001FA
:10828000084A12F8211009B9012200E0002204492D
:108290000A310A54411C88B20228EFDB7047000003
:1082A000BC2500209425002010B5084800F036F8C1
:1082B00040B900200549891E08704880486041F691
:1082C0001D5010BD00F072F8FBE70000BE25002035
:1082D00070B50F48458805EB85000E4901EB80001D
:1082E000C06878B904200A49087005EB8500094A7E
:1082F00002EB8000002301224168074801F072FE72
:10830000044602E000F090F80446204670BD0000EC
:10831000BC250020942500203823002010B50146FC
:108320000022002018E00F4B1B5C9BB100240D4B7A
:108330001C5400EB80030C4C04EB8303DB684BB94B
:1083400000EB800304EB83031B7C012B02D108802C
:10835000012203E0431C98B20228E4DB00BF104670
:1083600010BD0000C625002094250020F8B50C485B
:1083700044680C4800680B49898800EB81056088D7
:10838000C01C86B20320064908700020B30000908C
:10839000084629464268044801F046FFF8BD00003F
:1083A000BC250020542200203823002010B50749A6
:1083B0004888091D04F008F918B1FFF7D7FF0446F3
:1083C00002E0FFF785FF0446204610BDBC250020D3
:1083D00010B514480078082820D2DFE800F0041F08
:1083E0001F0A1016171BFFF73FFF01200D490870E9
:1083F00015E000F075F802200A4908700FE000F05F
:1084000029F806200749087009E000BF0720054940
:10841000087004E001200349087000E000BF00BFBD
:1084200010BD0000BC25002010B5052006490870CD
:10843000022006498880084600230122016804487A
:1084400001F0D0FD10BD0000BC250020542200200A
:1084500038230020104908681049498801EB810140
:108460000F4A02EB810149680B4A11600B494988A8
:1084700001EB81010A4A02EB8101486006498988C3
:10848000064A528802EB8202054B03EB82021181FD
:108490000221014A9180704754220020BC2500200F
:1084A0009425002010B5062005490870498801EB85
:1084B0008101044A02EB8101486802F0E5FF10BD2A
:1084C000BC2500209425002010B507200349087022
:1084D0000020486002F0E8FF10BD0000BC2500202D
:1084E000054A50684288D21C91B2044A92880A44D4
:1084F000024B9A8070470000BC25002054220020C7
:1085000070B586B00446A5882088352835D0502817
:1085100028D0522802D0542871D103E0284600F018
:10852000D1FF6CE018223C496846FDF75FFFADF8CB
:108530000250284600F016FCADF80400BDF8040017
:1085400000F036F90022354801782846FEF7C8FECB
:108550000022334801782846FEF7C2FE6846FFF73E
:10856000A5FC4CE0A01DFFF73DF828B101212846ED
:1085700001F00AF805F024FA41E00026A58800225F
:10858000284801782846FEF7ABFEE088B0F5857FE5
:1085900030D0E08858B1E2882349244BC91AC90871
:1085A000022343EA014022A102F050FA22E060894E
:1085B00001280AD062891C491C4BC91AC908022328
:1085C00043EA014029A102F041FAA08901280BD019
:1085D000A2891549154BC91AC908022343EA01406B
:1085E00031A102F033FA05E0A07B08B1012000E0E0
:1085F000002006463146284604F032FF00BF00BF87
:1086000000BF0022374938480078FEF729FE00BF36
:1086100004F094FC06B070BDF4E30200EF220020E9
:10862000EE220020F022002088F4020020F4020054
:10863000556E6578706563746564204741545420B5
:10864000737461747573207768696C6520676574ED
:1086500074696E67204341522063686172207661BD
:108660006C75653A20307825780000004D756C7483
:1086700069706C6520282564292043415220636875
:108680006172616374657269737469637320666F84
:10869000756E642C207573696E672074686520663A
:1086A000697273742E000000556E6578706563748E
:1086B000656420434152206368617261637465722E
:1086C00069737469632076616C7565206C656E678B
:1086D000746820282564292C2073746F72652030FB
:1086E0002E00000009700200ED22002010B50446A3
:1086F000207858B9608800F0E5FE608804F00EFC30
:108700006088FEF741FF05F05BF900E000BF00BFA5
:1087100010BD00007CB504462078082840D1607A5E
:1087200000283DD1207A012814D0072802D008283B
:1087300034D12BE0A08800F045FA05464FF6FF70D3
:10874000854206D00121284600F01EFF2846FEF78C
:108750001BFF24E0A0886A46012102F07FFF064645
:108760009EB90198007880B1A08800F02BFA0546E8
:108770004FF6FF70854207D001220B48017828464A
:10878000FEF7AEFD04F0DAFB00BF08E00748006822
:10879000012802D1054802F04BFB00E000BF00BFFA
:1087A00005F00EF97CBD0000EE220020E82200203A
:1087B0001CB50446044903C9CDE9000100226946FD
:1087C000204603F001F91CBD1CE402002DE9FC4722
:1087D0000546284600F0C6FA06460027B8464FF080
:1087E00003094FF0010A4FF6FF7086420DD06A462A
:1087F0000821304602F032FF044634B90198871D43
:10880000B0F80480D0F8009000BF00BF4B4642464D
:1088100039462846B1DF0446042C01D1112422E058
:10882000082C01D100241EE00B2C1CD14FF0000AB3
:1088300009F0020010B14FF0010914E017B9B8F1C6
:10884000000F04D00027B8464FF003090BE00A4997
:108850000A4A891AC908012242EA01402A460849FF
:1088600002F0F4F803240B2CD0D0BAF1000F00D1A1
:108870000B242046BDE8FC8790F4020020F402009F
:1088800014EC02002DE9FC5F8046404600F06AFAD5
:1088900006464FF6FF70864203D143F20200BDE860
:1088A000FC9F4FF001094FF0000A00BF4FF0000A93
:1088B0004A46511C1FFA81F96B460821304602F0E6
:1088C0002FFF0446002C31D1019D032028602A1D72
:1088D000A91D40462B68B2DF044634B93246082150
:1088E000304602F0A5FF04461FE00C2C02D14FF0E9
:1088F000010A02E0052C00D100240821304602F0D4
:1089000087FF074687B1384602F00AFC83460C49C8
:108910000C4A891AC908012242EA01405B463246E4
:10892000094902F09FF8032400BF02E0072C00D1A0
:108930000C24BAF1000FB9D100BF2046AFE7000008
:1089400090F4020020F4020094EB020010B50446FB
:10895000044800884FF6FF71884201D004F0FAFA0B
:1089600010BD0000F4220020FEB5044602A80190CC
:10897000204600F0F7F906466A460121304602F02B
:108980006DFE05460DB10020FEBD01980078FBE7A5
:108990002DE9F04105464FF6FF761648B3DF044651
:1089A0008CB1204602F0BCFB07461349134A891AD2
:1089B000C908012242EA01403A46114902F046F84C
:1089C0000320BDE8F08100BF4FF6FF72094801881F
:1089D0002846AFDF044643F20300844204D1054831
:1089E0000088401C0349088043F203008442EBD016
:1089F0002046E6E7F622002090F4020020F4020070
:108A000048EB020070B504460D46204600F01AF807
:108A1000A84201D9022070BDA0884FF6FF7188429C
:108A200001D0208808B90120F5E70020F3E70246CD
:108A300013468B4204D21868401C08B101207047CD
:108A40000020FCE701464A8801F10C0000EB82009F
:108A500070473EB504460D4620780221B1EB500F19
:108A600001D000203EBDB4F80100ADF80800E07868
:108A70008DF80A00A188ADF80010A0798DF80200E9
:108A800001AA69462846FEF771F9032201A902A846
:108A9000FDF7D7FC08B90120E4E70020E2E7000079
:108AA00070B504460D46142C03DA2046FEF736FC5A
:108AB00010B943F2020070BD04EB8400054901EBDC
:108AC0004000D0F802102960C188A980007AA871FE
:108AD0000020F0E7A02F002030B591B0054628888F
:108AE000102801D011B030BD2C22291D06A8FDF799
:108AF0007DFC4FF6FF749DF81C000321B1EB500F75
:108B000035D002F00BFF9DF81C00400820B1012871
:108B100003D0022828D114E000BF09E0049800F136
:108B2000110107A8FEF7D2F810B1BDF8144006E015
:108B300003AA05A9072002F0BBFE0028EED100BF62
:108B400013E008E00498411C07A8FFF782FF10B16A
:108B5000BDF8144006E003AA05A9072002F0A8FE0C
:108B60000028EFD100BF00E000BF00BF00BFBDF88C
:108B7000180000EB8000124921F81040BDF81800E1
:108B800000EB800001EB40000799C0F80210BDF82F
:108B90002010C1809DF8221001724FF6FF708442B0
:108BA0000CD0BDF81800ADF80200ADF8044000206C
:108BB0008DF800006846FFF78DF900BF00BF91E710
:108BC000A02F002070B505464FF6FF70854200D1FA
:108BD00070BD00240EE004EB8400094931F8100058
:108BE000A84205D12046FEF799FB08B12046EFE7E1
:108BF000601C84B2142CEEDB4FF6FF70E8E7000037
:108C0000A02F00203EB505460C4602F087FE0BE083
:108C1000BDF80800A04207D02846019900F00EF8E0
:108C200010B1BDF808003EBD6A4602A9072002F057
:108C30003FFE0028ECD14FF6FF70F4E72DE9F04736
:108C400004460D4604F1110605F111071022691CB6
:108C5000601CFDF7F6FB48B9601C00F046FA28B12D
:108C6000681C00F042FA08B1012000E000208246B2
:108C700039463046FEF72AF8804630780221B1EBBB
:108C8000500F10D030780321B1EB500F0BD0387853
:108C90000221B1EB500F06D038780321B1EB500F11
:108CA00001D0012000E000208146B8F1000F02D081
:108CB000B9F1000F05D1BAF1000F05D0B9F1000FDD
:108CC00002D10120BDE8F0870020FBE702461088B2
:108CD00008B101207047002105E0901C405C08B1FC
:108CE0000120F7E7491C0829F7D30020F2E770B507
:108CF00005460C462846FFF7E9FF08B9002070BD7D
:108D000028882188884201D00020F8E70822A11C89
:108D1000A81CFDF796FB08B90120F0E70020EEE75C
:108D2000142804DA00EB8002014B23F8121070477C
:108D3000A02F002070B506463046FFF743FF0446DB
:108D4000304602F097FC054645B9142C06DA4FF67A
:108D5000FF7004EB8401024A22F81100284670BD1E
:108D6000A02F002010B50446142C03DA2046FEF78D
:108D7000D5FA10B94FF6FF7010BD04EB840002491C
:108D800031F81000F8E70000A02F00203EB504469F
:108D900002F0C4FD10E0019800F146012046FFF703
:108DA000A6FF30B9019800F12A012046FFF79FFF86
:108DB00010B1BDF808003EBD6A4602A9072002F0C6
:108DC00077FD0028E7D14FF6FF70F4E770B5044651
:108DD0000D4609486060094800F0B1FE50B902F044
:108DE000FFF8064908741C238C22054905480068D1
:108DF00000F0D7FD002070BD60E102007426002065
:108E0000D82500206CE102002DE9F04106460C4611
:108E10000F272EB10020424948600120BDE8F081B3
:108E2000207930B101280AD0022835D003286DD12D
:108E300040E00120207102F037FB074667E04FF069
:108E40000008002519E005EB8500364911F82000DF
:108E5000022810D1002005EB8501324A02F82100DA
:108E60004FF0010805EB850102EB8101486802F033
:108E70000BFB074603E0681C85B2022DE3DB00BF55
:108E8000B8F1000F07D10120254908700020486083
:108E900041F61D50C2E73AE000202071022022492D
:108EA00088800846002301220168204801F09AF8D2
:108EB00007462CE0002020711B49086802F0E4FA04
:108EC00007461B4845881848D0F8008005EB850008
:108ED000144901EB800040681349086005EB8500E8
:108EE000104901EB8000C0F804800F48808805EB32
:108EF00085010C4A02EB8101088102200A49888021
:108F0000002005EB850102F8210000E000BF00BF52
:108F100027B10020024948600E207FE700207DE74E
:108F200040220020942500205422002038230020D5
:108F3000BC250020024600210CE001EB8100074B1C
:108F400033F82000904204D101EB810003EB800054
:108F50007047491C0029F0D00020F9E7F82E0020C6
:108F60002DE9FC5F83460E4691461F46DDE90C4520
:108F7000002E01DA704200E0304682464FF00108D0
:108F800003E09AFBF9FA08F10108CA45F9DA474506
:108F900000D9B84634B1002E03DB05F004000428E4
:108FA00000D1641E05F0020000B167B105F00100B8
:108FB00048B944B104E0641E20215846FEF7C8FABF
:108FC0000CB1A045F7D3002E05DA76422D21584684
:108FD000FEF7BEFA07E005F00400042803D12B21B8
:108FE0005846FEF7B5FA05F0020002280DD105F04B
:108FF000010050B94FB944B104E0641E3021584615
:10900000FEF7A6FA0CB1A045F7D33B464A463146D7
:109010005846CDE9004504F077FCBDE8FC9F30B52B
:10902000024600201378C3F38003D3B1137803F012
:109030000303012B02D0022B10D107E01388C3F3E6
:1090400083139B1C0C6823440B6008E00B6802250B
:10905000146805EB945423440B6000E000BF00BF8C
:10906000012030BD01460348007A08B10120704755
:109070000020FCE7742600202DE9F0410446A0887A
:1090800000EB020CB4F80480904501DD104600E0CE
:10909000A088A8EB0005E088C618B4F806809845BB
:1090A00001DD184600E0E088A8EB00074888B4F826
:1090B0000080404504DB4888B4F80280404502DD6A
:1090C0000020BDE8F0818888A84202D388886045E6
:1090D00001D90020F5E7C888B84202D3C888B04259
:1090E00001D90020EDE70120EBE70246002104E072
:1090F000505C08B101207047491C1029F8D30020AA
:10910000F9E7014601F0030008B90120704700208B
:10911000FCE70146086808B102680A607047000071
:1091200010B504460F2000BF4FF0A0431946D1F8F8
:109130000425012383409343C1F80835012383406C
:109140001340C1F80C3500BF0549064A891AC90801
:10915000032242EA014004A101F06EFC10BD0000B0
:1091600060F4020020F402004C45445F746F6767AE
:109170006C652E0010B50F2001F088F9122001F067
:1091800085F90F2000BF4FF0A0410A46012303FAE2
:1091900000F1C2F8081500BF00BF122000BF4FF059
:1091A000A0410A4603FA00F1C2F80C1500BF00BF47
:1091B0000549064A891AC908032242EA014004A166
:1091C00001F03AFC10BD000060F4020020F402003F
:1091D0006C6564735F696E6974207375636365732E
:1091E0007300000010B501F0C5FF00200149887030
:1091F00010BD00006C2300202DE9FE4F80460F4675
:10920000924699460FB1002612E0684600F094FBA2
:109210006A460021404602F0C5F9009E2A480078BF
:1092200028B99DF8090010B90520BDE8FE8F00BFE0
:1092300052463146404603F0C0FF04460022214614
:109240004046FEF793FF0D2C1CD005DCCCB1082C5A
:109250001AD00B2C1BD118E0112C04D0A4F54050CF
:109260000238A0B90FE03A46184801784046FEF7A8
:1092700037F85246164801784046FEF731F8002587
:1092800017E000BF00BF00BF00BF254611E0204629
:1092900001F046FF83460F490F4A891AC908012287
:1092A00042EA014043465A460C4901F0DBFB0325E4
:1092B00000BF00BFB9F1000F04D03246214640463E
:1092C000FEF790FD2846B0E72C230020362300202F
:1092D00035230020C8F4020020F40200F4F102005B
:1092E00070B505460E46314628467EDF0446042CFE
:1092F00000D11124204670BD70B504460D461646B7
:1093000000BF0B4801782046FDF7D4FF70B120461E
:1093100002F0DCF828B132462946204602F0E0F897
:1093200004E0324629462046FEF73AFB70BD0000B5
:109330001C2300202DE9F041044688460A480178A4
:109340002046FDF7B7FF0646084801782046FDF79E
:10935000B1FF07460123324639462046FFF74CFF4E
:109360000546BDE8F08100003523002036230020AB
:1093700070B505460C46002624B121462846FFF765
:10938000AFFF0646304670BD2DE9F0410646002786
:109390004748D0F8008078E016B13446E66947E0E7
:1093A0004448007800EB40014248001D00EBC10535
:1093B000001F0078401C3F490870084600788978F3
:1093C000884202D100203B4908706C682878012847
:1093D0001AD0022802D0032817D107E0686804F0E9
:1093E00095F900B10127002020744EE007E03049D4
:1093F0000868002101742E4AC169116000BF2C4821
:1094000000680028F3D140E000E03EE000BF207C8F
:1094100000B13AE0A8686060E868A0602869E06090
:109420006869A0612448007808B10020606000BF2E
:10943000224960680968401A20F07F40204988422C
:1094400008D21E496068096804F078F8A1680844E9
:1094500020600FE019486168006804F06FF8054665
:10946000A068A84203D9A068401B206001E000204A
:10947000206000BF00206060A060012020740020F8
:10948000E061204604F00EF900BF002E84D10948A7
:109490000078084949788842F8D11FB90448006823
:1094A000404502D00120BDE8F0810020FBE700002C
:1094B0002C220020DC2300203F220020302200202C
:1094C000FFFF7F00F0B587B004460026182101A8F1
:1094D000FCF7A5FFADF806404FF6FF70844201D1BE
:1094E00007B0F0BD2046FFF771F9054645B10B2DD9
:1094F0000FD0112D0BD0A5F540500238E0B91AE07D
:109500000E208DF8040001A8FEF7D0FC29E001260A
:1095100027E00F208DF804001649174A891AC90858
:10952000022242EA01402246144901F08FFA01A8C2
:10953000FEF7BCFC15E014E0284601F0F1FD0746FB
:109540000C490D4A891AC908012242EA0140234602
:109550003A460B4901F086FA2946204603F05EFCA4
:1095600000BF00BF3246074801782046FDF7B8FE2D
:1095700000BFB5E788F4020020F40200C8EA020048
:1095800074EA0200ED22002070B505460C46224622
:10959000024801782846FDF7A3FE70BDEC220020AA
:1095A0002DE9F04186B00446002600272046FFF74B
:1095B00069F905464DB1112D0AD0862D0AD0A5F5C1
:1095C0004050023800281BD101E001272DE02CE09B
:1095D00001262AE0182219496846FCF707FFADF872
:1095E00002401749174A891AC908022242EA014073
:1095F000224615A101F02AFA6846FEF757FC14E04E
:10960000284601F08DFD80460D490E4A891AC90889
:10961000012242EA01402346424619A101F022FA02
:109620002946204603F0FAFB00BF00BF3146204622
:10963000FFF7AAFF384606B0BDE8F081B0E30200AC
:1096400088F4020020F40200466C6173682066759D
:109650006C6C2E20436F756C64206E6F7420737475
:109660006F7265206461746120666F7220636F6E33
:109670006E5F68616E646C653A20256400000000CE
:109680006773636D5F6C6F63616C5F64625F63617E
:109690006368655F757064617465282920726574FC
:1096A00075726E656420257320666F7220636F6E1D
:1096B0006E5F68616E646C653A202564000000008E
:1096C00070B54FF40041002001F04CFA044600BF91
:1096D000254625B100BF2846FDF7D0FB00BF00BFDF
:1096E00001F010F80549064A891AC908032242EA1E
:1096F000014004A101F0A0F970BD000060F4020077
:1097000020F402006C6F675F696E69742073756383
:10971000636573732E0000002DE9FF4100272E487A
:1097200000F006FA2C48001F00F002FA2B484068AF
:1097300003902A4885680398284028490C3101EB9A
:10974000800800BF03A94046FFF769FC30B10398C9
:10975000284022490C3101EB800800E000E0F1E7ED
:1097600000BF00240AE00398411C284003911B49D4
:109770000C3151F820004DF82400641C022CF2D367
:10978000009800F0030001280DD0022814D1BDF884
:1097900006700421009801EB9050401E039901EBE4
:1097A0009000039009E0BDF806700098C0F38310A4
:1097B00003990844039000E000BF00BF0648001F63
:1097C00000F0AFF9064616B10449039848603846E0
:1097D00004B0BDE8F0810000442C00202C280020BB
:1097E000FFF76EFFFFF7C6FC03F0B4FE00BFFEE715
:1097F0002DE9FF4F87B0044691461E46A2462546F6
:10980000BAF806009AF805104843001F0690BAF807
:1098100006B0301DB0FBFBF00590301DB0FBFBF136
:109820000BFB11000490D9F80000811906988142C1
:1098300002D90698801B01E0D9F800000746C9F854
:10984000007003E02D680598401E059005980028DB
:10985000F8D103900498ABEB0008B84501D938461D
:1098600000E04046804623E00399089808440290AF
:10987000281D049908440190149828B14246DDE956
:109880000110FCF7B3FD04E04246DDE90101FCF7FD
:10989000ADFD002004902D68A7EB08070398404415
:1098A0000390BB4501D9384600E05846804600BFCA
:1098B000002FD9D10BB0BDE8F08F000070B5034682
:1098C0000C469CB101F07CF9054600220AE00848EC
:1098D00000EB820108881E68B04202D11A600020A5
:1098E00070BD521CAA42F2D30520F9E70020F7E729
:1098F0000000000070B504460D462946204600F0E1
:10990000ABF880F00106BFF35F8F304670BD70B5D5
:1099100004460D46BFF35F8F2946204600F0E3F86A
:1099200070BD70B504460D46BFF35F8F29462046D3
:1099300000F083F870BD00000EB500210091019188
:1099400002910449096800919DE80E0080E80E002C
:109950000EBD00002823002070B505460E464FF6C8
:10996000FF70854201D1002000E0681C84B208E04D
:109970002146304600F0B7F808B1204670BD601CA3
:1099800084B2FF2CF4DD4FF6FF70F7E770B50446A4
:109990002046FCF78AFC05460DB1002070BD112061
:1099A000FCE710B5044609B90E2010BD92FBF3F098
:1099B00003FB102008B10920F7E721600020606058
:1099C000A060A281E38100BFEFE770B504460D46B9
:1099D00029462046FCF71EFC18B12A882168881801
:1099E00070BD0020FCE770B505460C4620886188F4
:1099F000884204D12846FCF74FFC012070BD0020AE
:109A0000FCE770B504460D4629462046FCF727FCC6
:109A100018B16A882168881870BD0020FCE770B50D
:109A200005460C4620886188884204D12846FCF708
:109A30000DFC012070BD0020FCE770B505460C460A
:109A400004F01F0301229A40D143620905EB820012
:109A500000F087F8064670BD70B505460C4604F068
:109A60001F03012202FA03F1620905EB820000F0F4
:109A700099F804F01F0201219140084008B101202B
:109A800070BD0020FCE72DE9F04106460D4600249C
:109A900021E056F82400C04390FAA0F0B0FA80F814
:109AA00014E008EB4417AF4200D312E039463046C9
:109AB000FFF7D2FF10B93846BDE8F08156F8240010
:109AC000C04390FAA0F0B0FA80F800BFB8F1200FC0
:109AD000E7D300BF641C681E012101EB5010A042B7
:109AE000D7D82846E8E710B50246480952F82000C2
:109AF00001F01F040123A340184008B1012010BD4C
:109B00000020FCE770B505460C4604F01F03012257
:109B100002FA03F1620905EB820000F059F80646EB
:109B200070BD10B504460021204600F030F810BD8D
:109B300010B504460121204600F04AF810BD10B5CA
:109B400004460121204600F02DF810BDF8B504466A
:109B50000D466A4629462046FCF7F3FB0646009868
:109B6000F8BDF8B504460D466A4629462046FCF77E
:109B7000CEFB06460098F8BDF8B504460D466A4689
:109B800029462046FCF7DDFB06463046F8BDF8B511
:109B900004460D466A4629462046FCF7B8FB0646B1
:109BA0003046F8BDF8B504460D466A4629462046BB
:109BB000FCF7A0FB06463046F8BDF8B504460D4656
:109BC0006A4629462046FCF789FB06463046F8BD22
:109BD000F8B504460D466A4629462046FCF78AFB3E
:109BE00006460098F8BDF8B504460D466A46294673
:109BF0002046FCF7B3FB06460098F8BDF8B50446CE
:109C00000026002000906846FDF7D4F9206800681F
:109C10006168884215D920680068401E226810607B
:109C20000178204600F033F80646207A216809784A
:109C3000401AC5B220680079A84201DA206805718F
:109C400000BF9DF80000FDF7BBF93046F8BD0246A5
:109C5000D068081A138AB0FBF3F0C0B27047F8B5A9
:109C600004460D462E46002000906846FDF7A2F9F6
:109C700031462046FFF7EBFF21680A68511C236834
:109C8000196010709DF80000FDF79AF9F8BD0246C2
:109C9000138AD06801FB0300704710B5014600BF6E
:109CA00009B90E2010BD00BF087A0B79C01AC2B2E4
:109CB000D1E90030186005E008680368581C0C689A
:109CC00020601A70101EA2F10103DAB2F4D10B6801
:109CD000187100BFE6E730B502460B46D40802F023
:109CE0000702012090401D5D284030BD30B50B4675
:109CF000C20800F007009C5C012585402C439C5461
:109D000030BD01464FF08040405808B101207047F7
:109D10000020FCE708B500224FF080410A500958A6
:109D2000009100BF08BD00000149086070470000B5
:109D300008030040012291070A50704710B5002423
:109D40000C48007808B1852411E00020094988609A
:109D500048600861C860084801F0FAF9044601F05B
:109D60003FF908B901F0EAF90120024908702046DC
:109D700010BD00006C2300209D76020008B5002075
:109D800000906846FDF716F90748C068401E06496E
:109D9000C8600846C06808B9FFF724FA9DF80000BB
:109DA000FDF70EF908BD00006C2300200FB438B594
:109DB0000446059810B938BC5DF814FB00200090EB
:109DC00006A800906A462046059900F012F8002087
:109DD000009000BFEFE770B50446A06800B970BD01
:109DE000D4E90403A268216898470020A06000BF5E
:109DF000F5E72DE9FC5F82460D4614460DB9BDE836
:109E0000FC9F00BF2E786D1C06B9E1E0252E70D1B5
:109E100000274FF0010900BF2E782B2E0CD02D2EDD
:109E200002D0302E0CD103E047F001076D1C0AE090
:109E300047F002076D1C06E047F004076D1C02E0C6
:109E40004FF0000900BF00BFB9F1000FE4D14FF09F
:109E5000000800BF2A2E06D12168081D206008686E
:109E600080446D1C0DE02E78302E01DB392E00DD94
:109E700007E06D1CA6F1300008EB880100EB4108FB
:109E8000E8E700BF4FF0000B2E782E2E10D16D1C8E
:109E900000BF2E78302E01DB392E00DD07E06D1C6F
:109EA000A6F130000BEB8B0100EB410BF1E700BF9B
:109EB0002E7800BF6C2E01D0682E02D16D1C2E783A
:109EC00000E000E0F6E700BF692E21D008DC252E77
:109ED0006DD0582E39D0632E0CD0642E6CD116E084
:109EE000702E4CD0732E3ED0752E1FD0782E63D19D
:109EF0002AE065E02168081D2060D1F8009009F093
:109F0000FF00019050460199FDF722FB55E000BF8C
:109F10002168081D2060D1F800905B460A2249465E
:109F20005046CDE90087FFF71BF846E02168081D81
:109F30002060D1F800905B460A2249465046CDE9A0
:109F4000008703F0E1FC38E000BF2168081D2060B5
:109F5000D1F800905B46102249465046CDE9008773
:109F600003F0D2FC29E02168081D206008680190F8
:109F70003B4642465046019903F0A6FA1DE021688F
:109F8000081D2060D1F8009030215046FDF7E0FA1E
:109F900078215046FDF7DCFA002008210B461022FC
:109FA000CDE900104946504603F0AEFC05E02521FE
:109FB0005046FDF7CDFA00E000BF00BF6D1C03E086
:109FC00031465046FDF7C4FA287800287FF41AAFCE
:109FD00000BF9AF80C0010B15046FFF7FCFE00BF1E
:109FE0000DE70000F8B504460E4615461F4600BFB3
:109FF0007CB90E203849394A891AC90801220090D3
:10A0000042EA0140364B37A238A100F03BFD0E205A
:10A01000F8BD00BF00BF206878B908202E492F4A3C
:10A02000891AC9080122009042EA01402C4B3AA249
:10A030002EA100F027FD0820EAE700BF00BF7DB990
:10A0400009202549254A891AC9080122009042EAB7
:10A050000140234B33A225A100F014FD0920D7E7CE
:10A0600000BF00BF31462046FCF751FE78B91020F2
:10A0700019491A4A891AC9080122009042EA014086
:10A08000174B29A219A100F0FDFC1020C0E700BF6A
:10A0900000BF6068006800FB05F231462046FCF70F
:10A0A00040FE78B910200C490C4A891AC9080122CF
:10A0B000009042EA01400A4B254A0CA100F0E2FC64
:10A0C0001020A5E700BF20683B462A463146D0F85D
:10A0D00010C02046E0479BE750F4020020F4020045
:10A0E0004BE10200705F667300000000257320637F
:10A0F0006865636B206661696C656420696E202504
:10A1000073282920776974682076616C7565203022
:10A110007825782E00000000705F66732D3E705F1A
:10A12000617069006C656E00616464725F69735F81
:10A13000706167655F616C69676E656428705F66F2
:10A14000732C20706167655F616464722900000090
:10A1500070E5020002460120044B58741846007A4C
:10A1600008B9012070470020FCE700007426002099
:10A1700070B504460D46012C01D0032C0BD10020F4
:10A1800005494874012C01D1012000E0002002495A
:10A19000087402F09FF870BD7426002070B5044664
:10A1A0000E46022C02D0032C00D070BD1C48007A51
:10A1B00020B1012803D0022826D101E0F5E723E0F1
:10A1C0000025022C02D0032C0CD105E015480068B4
:10A1D00001F0B4F8054606E01248006801F09CF86A
:10A1E000054600E000BF00BF6DB100200C490872B9
:10A1F000022C00D100E00D2001460A480068FDF75E
:10A20000BDFD01F0CFFF00BF00BF0548407C10B985
:10A2100002F060F801E000F0E9FE00BFC5E70000D1
:10A2200074260020702200202DE9F84304460F46D2
:10A2300016461D46DDF8208000BF84B90E2059491E
:10A24000594A891AC9080122009042EA0140574B35
:10A2500057A259A100F016FC0E20BDE8F88300BFFC
:10A2600000BF7EB90E204F494F4A891AC908012202
:10A27000009042EA01404D4B5AA24FA100F002FC6F
:10A280000E20EAE700BF00BF206878B908204549E2
:10A29000454A891AC9080122009042EA0140434B0D
:10A2A00052A245A100F0EEFB0820D6E700BF00BF98
:10A2B0007DB909203B493C4A891AC908012200900E
:10A2C00042EA0140394B4CA23BA100F0DBFB0920E4
:10A2D000C3E700BF00BF60684068B5FBF0F100FB5A
:10A2E000115078B109202F492F4A891AC908012233
:10A2F000009042EA01402D4B40A22FA100F0C2FB8A
:10A300000920AAE700BF00BF3846FCF7F8FC78B97F
:10A3100010202449244A891AC9080122009042EADF
:10A320000140224B40A224A100F0ACFB102094E796
:10A3300000BF00BF3046FCF7E2FC78B91020194995
:10A34000194A891AC9080122009042EA0140174BB4
:10A350003BA219A100F096FB10207EE700BF00BFD2
:10A360002A4639462046FCF7DCFC78B910200D4916
:10A370000D4A891AC9080122009042EA01400B4B9C
:10A3800038A20DA100F07EFB102066E700BFCDF8DB
:10A39000008020682B4632463946D0F80CC0204653
:10A3A000E0475AE750F4020020F4020038E10200CE
:10A3B000705F667300000000257320636865636B3F
:10A3C000206661696C656420696E202573282920E8
:10A3D000776974682076616C756520307825782EF1
:10A3E00000000000705F737263000000705F6673AE
:10A3F0002D3E705F617069006C656E0021286C6590
:10A400006E202520705F66732D3E705F666C6173F1
:10A41000685F696E666F2D3E70726F6772616D5F07
:10A42000756E697429000000616464725F69735F0E
:10A43000616C69676E6564333228646573742900E2
:10A44000616464725F69735F616C69676E656433D0
:10A4500032282875696E7433325F7429705F7372A5
:10A4600063290000616464725F69735F776974686F
:10A47000696E5F626F756E647328705F66732C20FF
:10A48000646573742C206C656E290000F0B50121A1
:10A490000A4600231C461D4600BF4FF0A0473E461B
:10A4A00041EA420747EA830747EA042747EA054C9F
:10A4B00006F5E06747F820C000BFF0BD10B50A46BA
:10A4C00000BF4FF0A043194601F5E06353F8203078
:10A4D00023F4403401F5E06343F8204053F8203082
:10A4E00043EA024401F5E06343F8204010BD000058
:10A4F00038B50B46074C24680094014606E05DF829
:10A500002140D4F810551560121D491CC4188C4206
:10A51000F5D838BD84E00200014601480844704780
:10A520000060004038B504462046FFF7F5FF0021E3
:10A5300001602046FFF7F0FF0068009000BF38BDC3
:10A5400010B504462046FFF7E7FF0068012800D158
:10A5500010BD0020FCE7000070B504460E46FCF775
:10A5600051FE0546681C08B9284670BDE8B2E1688E
:10A57000087100BF0C48D0F8100430B90A48C0F880
:10A5800010440020E16808600BE00748D0F8100490
:10A59000C0680068E16808600348D0F81004C0682B
:10A5A00004602846E1E700002C280020704710B521
:10A5B000FCF726F910BD704738B504460D4604482F
:10A5C0004023044A29460090204600F005F838BD93
:10A5D00099CE0200942600202DE9F04F93B08246D8
:10A5E0000E4617469846DDF87090304600F0E1FBC5
:10A5F00018210DA8FBF713FF0D97CDF83880CDF883
:10A60000489000252B46082207A9304600F0EEFBB3
:10A61000082509980A90BDF82000ADF82C00BDF877
:10A620002200ADF82E0000208DF83100079800F0D0
:10A63000030001281BD107984FEA902B0798C0F31D
:10A64000C2008DF830000798C0F38314A2002B4697
:10A6500001A9304600F0CAFB05EB84050DA80AAB42
:10A66000224601A90090584600F0E2FA27E0079838
:10A6700000F00300022822D107984FEA905B079868
:10A68000C0F3C2008DF8300000BFBBF1080F01D24B
:10A69000584600E0082004462B46224605A93046CD
:10A6A00000F0A4FB2544ABEB040B0DAB0AAA21463A
:10A6B00005A800F0FBF9BBF1000FE6D100BF304662
:10A6C00000F085FB13B0BDE8F08F000010B5024626
:10A6D0000B4C04EBC203012906D0022906D0032942
:10A6E00006D0042908D105E0022007E0042005E097
:10A6F000187903E0587901E0002000BF00BF10BDC9
:10A7000020F4020010B54FF0FF34FFF750FF042192
:10A710000548FFF721FF044600BF01200249C96830
:10A72000487100BF10BD000010F402002DE9F04F89
:10A730008BB0FCF71DFF18B100200BB0BDE8F08F07
:10A740000020B449C1F81804BFF34F8F0846406891
:10A750000A90084684680A9820400C3101EB800A70
:10A76000002500260020069000BF0AA95046FEF7EB
:10A7700056FCA8B1A748D0F8180488B9A5480068C5
:10A780000A99884205D8A3480068A2494860002079
:10A79000D3E70A9820409F490C3101EB800A00E082
:10A7A00000E0E2E700BF00270BE00A98411C2040D0
:10A7B0000A9198490C3151F8200007A941F8270067
:10A7C0007F1C022FF1D3079800F0030002287CD1F0
:10A7D0000798800D059050210798B1EB905F02DD3E
:10A7E0000798800D00E050208146079869F39F503C
:10A7F000079009F1080004900798C0F3C200069082
:10A800008548049900F078FA0546002D5BD028466B
:10A8100000F0CFFA3346082207A9284600F0F7FADD
:10A8200008360A982040611C081A4FEA8008C14582
:10A8300035D9B8F1000F06D00A98204075490C317F
:10A8400001EB800001E073480C300390B8F1000F79
:10A8500001D0404600E0484600F0FF0BB8F1000F81
:10A8600002D06C480C3000E000200290B8F1000FDC
:10A8700002D0A9EB080000E00020C0B201903346EE
:10A880005A462846039900F0C2FA5E44029828B15D
:10A8900033462846DDE9012100F0B9FA0CE00A98B8
:10A8A00020405C490C3101EB800B33464A46594647
:10A8B000284600F0ACFA00BF0598C01C0A9901EBCD
:10A8C00090000A9000BF44E0FFE7079800F0030003
:10A8D00001283ED10798C0F38310062803DA0798B1
:10A8E000C0F3831000E00620079960F389110791F7
:10A8F0000798C0F3831000F102080798C0F3C20064
:10A9000006904FEA8801444800F0F6F90546FDB18B
:10A91000284600F04EFA3346082207A9284600F0E0
:10A9200076FA083600270EE00A98421C20400A9268
:10A93000384A0C3202EB800133460422284600F0EC
:10A9400066FA361D7F1C0798C0F38310B842EBD817
:10A9500000BFE5B32F48D0F81084D0F8180418B120
:10A96000284600F034FA31E019E04FF0000900BF4A
:10A97000D8F80C004079012800D18146B9F1000FC8
:10A9800008D000BFD8F8000029460268404690472A
:10A9900000BF00BFD8F80C00D0F8008000BFB8F1AD
:10A9A000000FE2D1284600F012FA0020059005A819
:10A9B000FCF700FB1748D0F8180410B915490A989D
:10A9C00048609DF81400FCF7FBFA00BF1DE0FFE7AC
:10A9D0001048D0F810840AE0C146D9F80000816818
:10A9E0004846884700BFD8F80C00D0F80080B8F17E
:10A9F000000FF1D109490A4A891AC908022242EA1C
:10AA0000014008A100F018F800BFFCF7B1FD80F08C
:10AA1000010092E62C280020D0F4020060F402002D
:10AA200020F402004261636B656E647320666C758E
:10AA3000736865640000000070B504460D4600238D
:10AA40001A462946204602F0D3FC70BDF8B50546EB
:10AA50000E461446009401236A463146284602F009
:10AA6000C7FCF8BD2DE9FC4106460F4614461D46BD
:10AA70000094019502236A463946304602F0B8FC3C
:10AA8000BDE8FC812DE9FE4306460F4614461D46EF
:10AA9000DDF8288000940195CDF8088003236A46EC
:10AAA0003946304602F0A4FCBDE8FE832DE9F05F94
:10AAB00007460E4690461D46082E01D9BDE8F09F78
:10AAC00095F80C90002028732946404601F0F4FACE
:10AAD00000240CE0B44205D23A5D1CA12846FFF7E1
:10AAE00065F903E01BA12846FFF760F9641C082CF8
:10AAF000F0D319A12846FFF759F900241AE0B4420F
:10AB000013D217F804A0FBF76DFC006810F80A00D8
:10AB100000F03E0008B1504600E02E2083465A4621
:10AB20000EA12846FFF742F903E00DA12846FFF7E2
:10AB30003DF9641C082CE2D301222946404601F06D
:10AB400097FA85F80C9000BFB8E700002025303256
:10AB500078000000202020007C0000002563000019
:10AB6000200000002DE9F04106460F4600BFFF20FF
:10AB70000E498860002008604860C1F81804C1F8D8
:10AB80001404012081F82004094800F01AF9044651
:10AB900014B12046BDE8F081064800F04EF90648A1
:10ABA0000649401AC5080020F4E700002C280020C0
:10ABB000D0F40200E8E20200D0F4020020F4020027
:10ABC00002480349401AC00870470000D0F4020050
:10ABD00020F4020013B50C4621466846FEF76EFECF
:10ABE00028B90448009A00EBC20108681CBD002087
:10ABF000FCE7000020F4020070B50C48D0F81044C7
:10AC000001200A4981F820040CE000BF0120E1681E
:10AC1000487100BF2546286841682846884700BF1C
:10AC2000E0680468002CF0D170BD00002C280020E2
:10AC30002DE9FF4707460C46164698460C9D95F8A9
:10AC40000C90002028732946404601F035FA072E63
:10AC500047D2DFE806F004090F161F2A37003946ED
:10AC60002846FFF7A3F83DE0394628462268FFF75B
:10AC70009DF837E039462846D4E90023FFF796F8D7
:10AC800030E0A068009039462846D4E90023FFF759
:10AC90008DF827E0D4E90201CDE9000139462846C4
:10ACA000D4E90023FFF782F81CE0D4E902122069FE
:10ACB000CDE90012029039462846D4E90023FFF777
:10ACC00075F80FE0D4E90223D4E90410CDE900239C
:10ACD000CDE9021039462846D4E90023FFF766F88B
:10ACE00000E000BF00BF00222946404601F0C0F945
:10ACF00085F80C90BDE8FF872DE9F84F07468A4696
:10AD0000388AA0F104080AF104004044401EB0FB58
:10AD1000F8F0C0B200903846FEF770FF044614B950
:10AD20000020BDE8F88F0020207101216171A4F896
:10AD3000068025460098A0F1010B2C462F604FF0AD
:10AD4000000912E03846FEF759FF064636B1607931
:10AD5000401C60712E603760354604E0204600F0EC
:10AD600008F80020DDE709F10109D945EAD32046BA
:10AD7000D7E72DE9F05F0446274697F80580264679
:10AD8000A8F1010B002501E036686D1C5D45FBD381
:10AD9000D6F800A02646002507E0D6F800903146F8
:10ADA0005046FEF75CFF4E466D1C4545F5D3BDE8A9
:10ADB000F09F70B5044625460121281DFEF7C6FE0A
:10ADC00070BD10B504462046FEF767FF10BDF8B50C
:10ADD000044626460121301DFEF705FF00906D4612
:10ADE000287810B92046FFF7C4FFF8BD2DE9FC41D3
:10ADF00005460E4614461F46019401203B4601AA13
:10AE0000314600902846FEF7F3FCBDE8FC812DE9B1
:10AE1000FC4105460E4614461F46019400203B4661
:10AE200001AA314600902846FEF7E2FCBDE8FC810D
:10AE3000BFF35F8F0021016070470021826891603D
:10AE400082681161826851618268D1608268516054
:10AE500082681160704700002DE9F04192B0804691
:10AE60001748007810B912B0BDE8F0811CE034201A
:10AE7000049004A905A861DF044604B115E005ADFE
:10AE8000104901A800F0F3F809E000BF0398064656
:10AE9000376828467168B84701A800F009F900BF73
:10AEA00003980028F1D100BFE1E700BF052C04D0D2
:10AEB00000BF2046FBF7E2FF00BF00BFD3E7000062
:10AEC000D422002030E3020038B51648007808B9D3
:10AED000082038BD01201449087001F0AFFD112889
:10AEE00001D10020F5E7022001F0C6FD002000900E
:10AEF0006846FCF75FF811DF044600200949087036
:10AF00009DF80000FCF75CF80CB12046E1E700205A
:10AF10000549087002F0F4F9032001F0ADFD0020AE
:10AF2000D7E70000D5220020D72200201CB51B48FF
:10AF3000007808B108201CBD0120194908700020C4
:10AF400001F07CFD112801D10020F4E7002001F080
:10AF500093FD144800680190002000906846FCF7BB
:10AF600029F8114901A810DF04460CB9012000E0BE
:10AF700000200A4908709DF80000FCF721F80CB188
:10AF80002046D8E70020064908700849087002F0FA
:10AF9000EDF9012001F070FD0020CCE7D522002062
:10AFA000D722002094E30200D96D0200D6220020AF
:10AFB0003EB50A49684600F05AF809E0684600F0D4
:10AFC00053F8044625686068A847684600F070F8A2
:10AFD000684600F049F80028F0D13EBD88E3020041
:10AFE0000148007870470000D522002010B50748BE
:10AFF000007808B9082010BD0548007810B1FFF7A7
:10B0000063FFF8E7FFF792FFF5E70000D722002083
:10B01000D52200202DE9FF41074618E003A84BDFA9
:10B02000044604B114E00F49684600F020F809E036
:10B0300000BF029805462E6869680398B0476846C5
:10B0400000F036F800BF02980028F1D100BFE5E714
:10B0500000BF052C04D000BF2046FBF70FFF00BF48
:10B06000BDE8FF8104E3020001468868704770B5BF
:10B0700004460D46256028686060204600F001F80F
:10B0800070BD14E0D0E900215268914202D1002144
:10B09000816070474168096842685268914203D0F4
:10B0A000416809688160F4E7416808314160E9E777
:10B0B00010B50446A06800B910BD2168A068896871
:10B0C0000844A060D4E901104968884205D160684D
:10B0D000083060602046FFF7D4FF00BFECE70000B7
:10B0E00070B502460D4B03F5947413E0E61AF010A8
:10B0F00000EBD076761003EBC6010D68954201D9BE
:10B100000C4606E0954202D201F1080301E04868CE
:10B1100070BD00BFA342E9D30020F9E7A4E102001B
:10B1200030B504462046FFF7DBFF05460DB902485F
:10B1300030BD2846FCE7000090E1020010B500F0A9
:10B1400035F801200149086000BF10BD1805004016
:10B1500001460020064A12790AB1852006E0044A19
:10B1600011600122024B1A7100225A7170470000CF
:10B170001C22002010B50C20FEF7DCFD00BF00BF34
:10B1800003480068C0F300400028F8D110BD00005B
:10B190001804004070B5044604B970BD024EA50104
:10B1A0002846B04700BFF8E7D1E00200F0B506231B
:10B1B00000200146C41700EBD4646411A40004F11C
:10B1C000E024D4F800410246C51700EBD5656D11A7
:10B1D000A0EB45160125B5402C400CB1012400E040
:10B1E000002444BB00221C4610462146002807DAF2
:10B1F0004D072F0E104D00F00F06361FAF5503E020
:10B200004D072E0E0D4D2E5400BF00BF002000BF75
:10B21000012181400A4A440942F8241000BF00BFBE
:10B22000012181404209920002F1E022C2F800119E
:10B2300000BF00BF00BFF0BD18ED00E000E400E07B
:10B2400080E200E070B50546AE883046FDF772FE3C
:10B25000044674B14FF6FF7340F2F31205F1080192
:10B2600004F10A00FDF708FF607221463046FCF742
:10B270008DFA70BD2DE9F0410546EF7BAE88012FB8
:10B2800001D0BDE8F0814FF6FF70FDF753FE044694
:10B290001CB9042001F090FDF3E700BF26800020D8
:10B2A00020720E480168C4F80A104068C4F80E0005
:10B2B00000BF4FF6FF7340F2F31205F1100104F1E5
:10B2C0000A00FDF7D9FE60720548C08918B9214609
:10B2D0003046FCF75BFA00BFD3E70000D82200201D
:10B2E0000C2F00202DE9F0410646B7883846FDF7BF
:10B2F00021FE05466DB16868FBF744FE044614B1B3
:10B30000204601F059FD00BF4FF6FF70288000BFB6
:10B3100000BFBDE8F081000001460748C068401C3E
:10B32000054AD0601046C068082803D90020D060C4
:10B33000012070470020FCE7742600200146002011
:10B34000154AD060087910B1012821D116E0D1E961
:10B350000530181AB0F5805F03D2D1E90530181A0C
:10B3600001E04FF480500246886983188B61D1E96F
:10B370000503834201D1012070470AE00869401C9F
:10B380000861D1E90420824201D10120F4E700E004
:10B3900000BF00BF0020EFE7742600202DE9F04138
:10B3A0000446A51D28881249C98988421DD168898B
:10B3B00002281AD1B4F804804046FDF7BBFD0646CA
:10B3C00096B105F10C00FCF747F820B13146404634
:10B3D000FCF7DCF908E07068FBF7D4FD074617B10D
:10B3E000384601F0E9FC00BF00BFBDE8F081000075
:10B3F0000C2F002030B502460A23002015E000EB98
:10B4000080040C4D05EB840464688C420BD200EB85
:10B41000800405EB8404646804F580548C4202D9EE
:10B420000023108003E0441CA0B20228E7DB00BF29
:10B43000184630BD94250020024602EB82000A4BDC
:10B4400003EB80000089084481B202EB820003EB29
:10B4500080004089084481B2B1F5806F01DA012093
:10B4600070470020FCE70000942500208A7D022A16
:10B4700004DD0389CA88D21C1A4402814389CA8820
:10B48000D21C9A1A4281704738B50446002008231E
:10B49000034A214600900348FEF7C6FE38BD00006F
:10B4A000E4E002003823002008B5002000900448A2
:10B4B0000823044A01680448FEF7B6FE08BD0000F0
:10B4C00054220020DCE002003823002010B504469E
:10B4D000024801782046FBF7EDFE10BD1D23002039
:10B4E0002DE9F04704460E461746002500BF1848D0
:10B4F00001782046FBF7DEFE08B1012000E00220C3
:10B50000804604F5807188B2072100F081F9054674
:10B51000ADB1052D13D02846FFF702FE81460D4937
:10B520000D4A891AC908012242EA014023464A46C7
:10B530000A49FFF797FA2946204601F099FC3B4655
:10B54000324641462046FCF74BF9BDE8F087000043
:10B550001E230020C0F4020020F4020068EF020065
:10B5600030B587B004460D4602208DF804002088CF
:10B57000ADF806006079C0F3800008B1012000E05A
:10B5800002208DF80C008DF80D5001A8FCF7C6FCC8
:10B5900007B030BD70B504460D460021204601F0CD
:10B5A00081FE70BD70B586B004460D461646052076
:10B5B0008DF80000ADF802402046FDF7D3FBADF852
:10B5C0000400029503966846FCF7BCFC06B070BD0B
:10B5D00070B50546002405E0044850F824102846BC
:10B5E0008847641C042CF7D370BD000048E40200B7
:10B5F0002DE9F041054601260027E86802F0AEFB80
:10B6000004462878082804D0092809D0132818D11E
:10B6100015E0687A18B914B1204602F0D1FB11E0A8
:10B62000687A58B954B100206060A07A20F0020016
:10B63000801CA072012008490870002602E0012742
:10B6400000E000BF00BF16B12846FFF7C1FF384633
:10B6500000F0C8FEBDE8F0810523002070B5044667
:10B660000D461646002332462946204600F05EF974
:10B6700070BD00002DE9FC4105460020019001A9A4
:10B68000284602F051FB064624E0B178284600F037
:10B69000BFF80446B4B1052C14D02046FFF740FD96
:10B6A0000746B0781A491B4A891AC9080122009036
:10B6B00042EA01402B463A461749FFF7E3F90320D7
:10B6C000BDE8FC810198401C019001A9284602F0C8
:10B6D0002BFB0646002ED8D1284600F0D9F90446A7
:10B6E0000CB1072C01D12046EAE72046FFF718FDF0
:10B6F00007460749074A891AC908012242EA014058
:10B700003B462A460549FFF7ADF90320D8E700007C
:10B71000A8F4020020F40200A4ED0200FCED0200F7
:10B720002DE9F84380460D4614461E4600BF16B963
:10B730000E20BDE8F88300BF00BF072D03D0082D01
:10B7400001D00720F5E700BF0CB1042C01D9072078
:10B75000EFE74FF000092946404602F0BFFA00909B
:10B76000009840B92A464146684602F0A5FA00987A
:10B7700038B91120DDE70098007AA04201D00F20EF
:10B78000D7E70098407AFF2810D121461C4800F0E6
:10B79000AEFA009948720098407AFF2804D10098C8
:10B7A00002F0FBFA1120C4E74FF0010900990C7276
:10B7B0000098417A124800F0CBFA07466FB9009919
:10B7C0004A7A1049104BC91AC908012343EA0140BB
:10B7D0000E49FFF73BF90320ABE7A3B23A462946EF
:10B7E000304600F001FAB9F1000F07D0082D05D15D
:10B7F00030880621C1EB800071688880002098E7BE
:10B8000078300020A8F4020020F4020030ED02009D
:10B8100070B505460E463146284602F05FFA0446EA
:10B820000CB9052070BD204602F0CAFA0020F9E7E5
:10B830002DE9F04107460D46164600BF072D04D0FE
:10B84000082D02D00720BDE8F08100BF304600F08F
:10B850002EF908B90720F6E72946384602F03EFAE5
:10B8600004460CB90520EEE72680A570204602F0BC
:10B8700039F9E8E770B505464FF6FF706880002497
:10B8800005E0044850F8241028468847641C002C22
:10B89000F7D070BD2CE4020010B50446204600F03D
:10B8A000DFF910BD10B50446204600F0E3F910BDE5
:10B8B0002DE9F04186B006460F46144600BF3046DB
:10B8C00000F07AF918B9012006B0BDE8F08100BF98
:10B8D000304600F084F980460F4A03A94046FCF741
:10B8E000CAFB08B10020EFE701A903A8FCF7E0FBC1
:10B8F00005460DB10020E7E7A6700198408820803A
:10B900000298606001998888FCF72AFC388003A8B7
:10B91000FCF776FB0120D7E7FC220020024800213B
:10B920000160416070470000FC2200202DE9F047D3
:10B9300086B080460F4614461D4600BFB8F1FF0F83
:10B9400003DD072006B0BDE8F08700BF00BF384622
:10B9500000F032F908B90720F4E700BF03AA39461E
:10B96000404600F009F906460EB10520EAE701A9B4
:10B9700003A8FCF79DFB06460EB10520E2E7A77081
:10B9800001984088208015B90298606016E02088F0
:10B990004FEA800A29882088B1EB800F01D22888DD
:10B9A00001E020888000814602994A466068FAF7E3
:10B9B0001DFDD14501D20C20C4E700BF03A8FCF750
:10B9C0001FFB0020BEE70000F0B587B006460C461E
:10B9D000174600BFFF2E02DD072007B0F0BD00BFF5
:10B9E00000BFA07800F0E8F808B90720F5E700BF2D
:10B9F000304600F077F9ADF81000A07800F0EFF8CD
:10BA0000ADF812006068059021880691A17801AA1E
:10BA1000304600F0B1F80546052D05D104A901A86E
:10BA2000FCF779FB054604E004A901A8FCF766FBD6
:10BA3000054635B1072D0ED0082D0AD00E2D0CD19C
:10BA400006E01FB1394601A8FCF729FB0020C4E736
:10BA500000BF1120C1E78620BFE70749074A891ABE
:10BA6000C908012242EA014033462A460449FEF74A
:10BA7000F9FF0320B1E70000A0F4020020F4020067
:10BA80008CEC020010B54FF6FF7000F0BBF810BD53
:10BA900010B5044600BFFF2C01DD072010BD00BF1C
:10BAA000204600F0B9F800F017F80020F6E710B5CE
:10BAB0000446204600F0FAF810BD2DE9F041054695
:10BAC0000E4617461C46A3B23A463146284600F0B9
:10BAD0008BF8BDE8F0810000F0B585B00020224968
